{
  "contractName": "Development",
  "abi": [
    {
      "inputs": [
        {
          "internalType": "contract ISwapRouter",
          "name": "_swapRouter",
          "type": "address"
        },
        {
          "internalType": "address",
          "name": "_factory",
          "type": "address"
        },
        {
          "internalType": "address",
          "name": "_WETH9",
          "type": "address"
        },
        {
          "internalType": "address",
          "name": "kyberAddress",
          "type": "address"
        }
      ],
      "stateMutability": "nonpayable",
      "type": "constructor"
    },
    {
      "anonymous": false,
      "inputs": [
        {
          "indexed": false,
          "internalType": "address",
          "name": "",
          "type": "address"
        },
        {
          "indexed": false,
          "internalType": "uint256",
          "name": "",
          "type": "uint256"
        }
      ],
      "name": "Received",
      "type": "event"
    },
    {
      "inputs": [],
      "name": "WETH9",
      "outputs": [
        {
          "internalType": "address",
          "name": "",
          "type": "address"
        }
      ],
      "stateMutability": "view",
      "type": "function"
    },
    {
      "inputs": [],
      "name": "factory",
      "outputs": [
        {
          "internalType": "address",
          "name": "",
          "type": "address"
        }
      ],
      "stateMutability": "view",
      "type": "function"
    },
    {
      "inputs": [],
      "name": "owner",
      "outputs": [
        {
          "internalType": "address",
          "name": "",
          "type": "address"
        }
      ],
      "stateMutability": "view",
      "type": "function"
    },
    {
      "inputs": [],
      "name": "refundETH",
      "outputs": [],
      "stateMutability": "payable",
      "type": "function"
    },
    {
      "inputs": [],
      "name": "swapRouter",
      "outputs": [
        {
          "internalType": "contract ISwapRouter",
          "name": "",
          "type": "address"
        }
      ],
      "stateMutability": "view",
      "type": "function"
    },
    {
      "inputs": [
        {
          "internalType": "address",
          "name": "token",
          "type": "address"
        },
        {
          "internalType": "uint256",
          "name": "amountMinimum",
          "type": "uint256"
        },
        {
          "internalType": "address",
          "name": "recipient",
          "type": "address"
        }
      ],
      "name": "sweepToken",
      "outputs": [],
      "stateMutability": "payable",
      "type": "function"
    },
    {
      "inputs": [
        {
          "internalType": "uint256",
          "name": "amountMinimum",
          "type": "uint256"
        },
        {
          "internalType": "address",
          "name": "recipient",
          "type": "address"
        }
      ],
      "name": "unwrapWETH9",
      "outputs": [],
      "stateMutability": "payable",
      "type": "function"
    },
    {
      "stateMutability": "payable",
      "type": "receive"
    },
    {
      "inputs": [
        {
          "internalType": "uint256",
          "name": "fee0",
          "type": "uint256"
        },
        {
          "internalType": "uint256",
          "name": "fee1",
          "type": "uint256"
        },
        {
          "internalType": "bytes",
          "name": "data",
          "type": "bytes"
        }
      ],
      "name": "uniswapV3FlashCallback",
      "outputs": [],
      "stateMutability": "nonpayable",
      "type": "function"
    },
    {
      "inputs": [
        {
          "components": [
            {
              "internalType": "address",
              "name": "token0",
              "type": "address"
            },
            {
              "internalType": "address",
              "name": "token1",
              "type": "address"
            },
            {
              "internalType": "address",
              "name": "token2",
              "type": "address"
            },
            {
              "internalType": "uint24",
              "name": "fee1",
              "type": "uint24"
            },
            {
              "internalType": "uint256",
              "name": "amount0",
              "type": "uint256"
            },
            {
              "internalType": "uint256",
              "name": "amount1",
              "type": "uint256"
            },
            {
              "internalType": "uint24",
              "name": "fee2",
              "type": "uint24"
            },
            {
              "internalType": "bool",
              "name": "unikyb",
              "type": "bool"
            }
          ],
          "internalType": "struct Development.FlashParams",
          "name": "params",
          "type": "tuple"
        }
      ],
      "name": "initFlash",
      "outputs": [],
      "stateMutability": "nonpayable",
      "type": "function"
    },
    {
      "inputs": [
        {
          "internalType": "address",
          "name": "token",
          "type": "address"
        },
        {
          "internalType": "address",
          "name": "recipient",
          "type": "address"
        },
        {
          "internalType": "uint256",
          "name": "value",
          "type": "uint256"
        }
      ],
      "name": "withdrawToken",
      "outputs": [],
      "stateMutability": "nonpayable",
      "type": "function"
    }
  ],
  "bytecode": "0x60e06040523480156200001157600080fd5b5060405162003b8538038062003b858339818101604052810190620000379190620001db565b82828173ffffffffffffffffffffffffffffffffffffffff1660808173ffffffffffffffffffffffffffffffffffffffff1660601b815250508073ffffffffffffffffffffffffffffffffffffffff1660a08173ffffffffffffffffffffffffffffffffffffffff1660601b81525050505033600060016101000a81548173ffffffffffffffffffffffffffffffffffffffff021916908373ffffffffffffffffffffffffffffffffffffffff1602179055508373ffffffffffffffffffffffffffffffffffffffff1660c08173ffffffffffffffffffffffffffffffffffffffff1660601b8152505080600160006101000a81548173ffffffffffffffffffffffffffffffffffffffff021916908373ffffffffffffffffffffffffffffffffffffffff16021790555081600260006101000a81548173ffffffffffffffffffffffffffffffffffffffff021916908373ffffffffffffffffffffffffffffffffffffffff16021790555050505050620002c3565b600081519050620001be816200028f565b92915050565b600081519050620001d581620002a9565b92915050565b60008060008060808587031215620001f257600080fd5b60006200020287828801620001c4565b94505060206200021587828801620001ad565b93505060406200022887828801620001ad565b92505060606200023b87828801620001ad565b91505092959194509250565b600062000254826200026f565b9050919050565b6000620002688262000247565b9050919050565b600073ffffffffffffffffffffffffffffffffffffffff82169050919050565b6200029a8162000247565b8114620002a657600080fd5b50565b620002b4816200025b565b8114620002c057600080fd5b50565b60805160601c60a05160601c60c05160601c6138566200032f60003980610b075280611ece5280611fa3528061217e525080609c528061046e52806105b1528061064c528061164c52806116ac528061172d5250806106d15280610b2b5280610c9c52506138566000f3fe6080604052600436106100955760003560e01c80638da5cb5b116100595780638da5cb5b14610205578063c31c9c0714610230578063c45a01551461025b578063df2ab5bb14610286578063e9cbafb0146102a25761015d565b806301e336671461016257806312210e8a1461018b57806349404b7c146101955780634aa4a4fc146101b1578063707e69c4146101dc5761015d565b3661015d577f000000000000000000000000000000000000000000000000000000000000000073ffffffffffffffffffffffffffffffffffffffff163373ffffffffffffffffffffffffffffffffffffffff161461015b576040517f08c379a00000000000000000000000000000000000000000000000000000000081526004018080602001828103825260098152602001807f4e6f74205745544839000000000000000000000000000000000000000000000081525060200191505060405180910390fd5b005b600080fd5b34801561016e57600080fd5b5061018960048036038101906101849190612f0a565b6102cb565b005b610193610454565b005b6101af60048036038101906101aa9190613025565b61046a565b005b3480156101bd57600080fd5b506101c661064a565b6040516101d39190613488565b60405180910390f35b3480156101e857600080fd5b5061020360048036038101906101fe9190612fd2565b61066e565b005b34801561021157600080fd5b5061021a610adf565b6040516102279190613488565b60405180910390f35b34801561023c57600080fd5b50610245610b05565b6040516102529190613586565b60405180910390f35b34801561026757600080fd5b50610270610b29565b60405161027d9190613488565b60405180910390f35b6102a0600480360381019061029b9190612f59565b610b4d565b005b3480156102ae57600080fd5b506102c960048036038101906102c4919061309d565b610c84565b005b3373ffffffffffffffffffffffffffffffffffffffff16600060019054906101000a900473ffffffffffffffffffffffffffffffffffffffff1673ffffffffffffffffffffffffffffffffffffffff161461038e576040517f08c379a00000000000000000000000000000000000000000000000000000000081526004018080602001828103825260208152602001807f4f776e61626c653a2063616c6c6572206973206e6f7420746865206f776e657281525060200191505060405180910390fd5b60008054906101000a900460ff161561040f576040517f08c379a000000000000000000000000000000000000000000000000000000000815260040180806020018281038252600e8152602001807f4e6f2072652d656e7472616e637900000000000000000000000000000000000081525060200191505060405180910390fd5b60016000806101000a81548160ff0219169083151502179055506104358330848461164a565b60008060006101000a81548160ff021916908315150217905550505050565b6000471115610468576104673347611855565b5b565b60007f000000000000000000000000000000000000000000000000000000000000000073ffffffffffffffffffffffffffffffffffffffff166370a08231306040518263ffffffff1660e01b8152600401808273ffffffffffffffffffffffffffffffffffffffff16815260200191505060206040518083038186803b1580156104f357600080fd5b505afa158015610507573d6000803e3d6000fd5b505050506040513d602081101561051d57600080fd5b81019080805190602001909291905050509050828110156105a6576040517f08c379a00000000000000000000000000000000000000000000000000000000081526004018080602001828103825260128152602001807f496e73756666696369656e74205745544839000000000000000000000000000081525060200191505060405180910390fd5b6000811115610645577f000000000000000000000000000000000000000000000000000000000000000073ffffffffffffffffffffffffffffffffffffffff16632e1a7d4d826040518263ffffffff1660e01b815260040180828152602001915050600060405180830381600087803b15801561062257600080fd5b505af1158015610636573d6000803e3d6000fd5b505050506106448282611855565b5b505050565b7f000000000000000000000000000000000000000000000000000000000000000081565b60006040518060600160405280836000015173ffffffffffffffffffffffffffffffffffffffff168152602001836020015173ffffffffffffffffffffffffffffffffffffffff168152602001836060015162ffffff16815250905060006106f67f0000000000000000000000000000000000000000000000000000000000000000836119d1565b905061081a836000015173ffffffffffffffffffffffffffffffffffffffff166370a08231306040518263ffffffff1660e01b815260040161073891906134a3565b60206040518083038186803b15801561075057600080fd5b505afa158015610764573d6000803e3d6000fd5b505050506040513d601f19601f820116820180604052508101906107889190612ffc565b846020015173ffffffffffffffffffffffffffffffffffffffff166370a08231306040518263ffffffff1660e01b81526004016107c591906134a3565b60206040518083038186803b1580156107dd57600080fd5b505afa1580156107f1573d6000803e3d6000fd5b505050506040513d601f19601f820116820180604052508101906108159190612ffc565b611b2c565b8073ffffffffffffffffffffffffffffffffffffffff1663490e6cbc3085608001518660a001516040518060e00160405280896080015181526020018960a001518152602001896040015173ffffffffffffffffffffffffffffffffffffffff1681526020013373ffffffffffffffffffffffffffffffffffffffff1681526020018881526020018960c0015162ffffff1681526020018960e0015115158152506040516020016108cb91906135df565b6040516020818303038152906040526040518563ffffffff1660e01b81526004016108f994939291906134be565b600060405180830381600087803b15801561091357600080fd5b505af1158015610927573d6000803e3d6000fd5b50505050610ada836000015173ffffffffffffffffffffffffffffffffffffffff166370a08231306040518263ffffffff1660e01b815260040161096b91906134a3565b60206040518083038186803b15801561098357600080fd5b505afa158015610997573d6000803e3d6000fd5b505050506040513d601f19601f820116820180604052508101906109bb9190612ffc565b846020015173ffffffffffffffffffffffffffffffffffffffff166370a08231306040518263ffffffff1660e01b81526004016109f891906134a3565b60206040518083038186803b158015610a1057600080fd5b505afa158015610a24573d6000803e3d6000fd5b505050506040513d601f19601f82011682018060405250810190610a489190612ffc565b856040015173ffffffffffffffffffffffffffffffffffffffff166370a08231306040518263ffffffff1660e01b8152600401610a8591906134a3565b60206040518083038186803b158015610a9d57600080fd5b505afa158015610ab1573d6000803e3d6000fd5b505050506040513d601f19601f82011682018060405250810190610ad59190612ffc565b611bce565b505050565b600060019054906101000a900473ffffffffffffffffffffffffffffffffffffffff1681565b7f000000000000000000000000000000000000000000000000000000000000000081565b7f000000000000000000000000000000000000000000000000000000000000000081565b60008373ffffffffffffffffffffffffffffffffffffffff166370a08231306040518263ffffffff1660e01b8152600401808273ffffffffffffffffffffffffffffffffffffffff16815260200191505060206040518083038186803b158015610bb657600080fd5b505afa158015610bca573d6000803e3d6000fd5b505050506040513d6020811015610be057600080fd5b8101908080519060200190929190505050905082811015610c69576040517f08c379a00000000000000000000000000000000000000000000000000000000081526004018080602001828103825260128152602001807f496e73756666696369656e7420746f6b656e000000000000000000000000000081525060200191505060405180910390fd5b6000811115610c7e57610c7d848383611c79565b5b50505050565b60008282810190610c959190612fa8565b9050610cc57f00000000000000000000000000000000000000000000000000000000000000008260800151611e7a565b506000816080015160000151905060008260800151602001519050610dfa8273ffffffffffffffffffffffffffffffffffffffff166370a08231306040518263ffffffff1660e01b8152600401610d1c91906134a3565b60206040518083038186803b158015610d3457600080fd5b505afa158015610d48573d6000803e3d6000fd5b505050506040513d601f19601f82011682018060405250810190610d6c9190612ffc565b8273ffffffffffffffffffffffffffffffffffffffff166370a08231306040518263ffffffff1660e01b8152600401610da591906134a3565b60206040518083038186803b158015610dbd57600080fd5b505afa158015610dd1573d6000803e3d6000fd5b505050506040513d601f19601f82011682018060405250810190610df59190612ffc565b611b2c565b8260c0015115611151576000610e1e84600001518486604001518760a00151611ec6565b9050610f746040518060400160405280600d81526020017f6265747765656e207377617073000000000000000000000000000000000000008152508473ffffffffffffffffffffffffffffffffffffffff166370a08231306040518263ffffffff1660e01b8152600401610e9291906134a3565b60206040518083038186803b158015610eaa57600080fd5b505afa158015610ebe573d6000803e3d6000fd5b505050506040513d601f19601f82011682018060405250810190610ee29190612ffc565b866040015173ffffffffffffffffffffffffffffffffffffffff166370a08231306040518263ffffffff1660e01b8152600401610f1f91906134a3565b60206040518083038186803b158015610f3757600080fd5b505afa158015610f4b573d6000803e3d6000fd5b505050506040513d601f19601f82011682018060405250810190610f6f9190612ffc565b612233565b6000610f8582866040015186612343565b905061112e8473ffffffffffffffffffffffffffffffffffffffff166370a08231306040518263ffffffff1660e01b8152600401610fc391906134a3565b60206040518083038186803b158015610fdb57600080fd5b505afa158015610fef573d6000803e3d6000fd5b505050506040513d601f19601f820116820180604052508101906110139190612ffc565b8473ffffffffffffffffffffffffffffffffffffffff166370a08231306040518263ffffffff1660e01b815260040161104c91906134a3565b60206040518083038186803b15801561106457600080fd5b505afa158015611078573d6000803e3d6000fd5b505050506040513d601f19601f8201168201806040525081019061109c9190612ffc565b876040015173ffffffffffffffffffffffffffffffffffffffff166370a08231306040518263ffffffff1660e01b81526004016110d991906134a3565b60206040518083038186803b1580156110f157600080fd5b505afa158015611105573d6000803e3d6000fd5b505050506040513d601f19601f820116820180604052508101906111299190612ffc565b611bce565b61114a856000015186602001518b8b8888878c60600151612524565b505061149a565b60006111668460000151848660400151612343565b90506112bc6040518060400160405280600d81526020017f6265747765656e207377617073000000000000000000000000000000000000008152508473ffffffffffffffffffffffffffffffffffffffff166370a08231306040518263ffffffff1660e01b81526004016111da91906134a3565b60206040518083038186803b1580156111f257600080fd5b505afa158015611206573d6000803e3d6000fd5b505050506040513d601f19601f8201168201806040525081019061122a9190612ffc565b866040015173ffffffffffffffffffffffffffffffffffffffff166370a08231306040518263ffffffff1660e01b815260040161126791906134a3565b60206040518083038186803b15801561127f57600080fd5b505afa158015611293573d6000803e3d6000fd5b505050506040513d601f19601f820116820180604052508101906112b79190612ffc565b612233565b60006112d2828660400151868860a00151611ec6565b905061147b8473ffffffffffffffffffffffffffffffffffffffff166370a08231306040518263ffffffff1660e01b815260040161131091906134a3565b60206040518083038186803b15801561132857600080fd5b505afa15801561133c573d6000803e3d6000fd5b505050506040513d601f19601f820116820180604052508101906113609190612ffc565b8473ffffffffffffffffffffffffffffffffffffffff166370a08231306040518263ffffffff1660e01b815260040161139991906134a3565b60206040518083038186803b1580156113b157600080fd5b505afa1580156113c5573d6000803e3d6000fd5b505050506040513d601f19601f820116820180604052508101906113e99190612ffc565b876040015173ffffffffffffffffffffffffffffffffffffffff166370a08231306040518263ffffffff1660e01b815260040161142691906134a3565b60206040518083038186803b15801561143e57600080fd5b505afa158015611452573d6000803e3d6000fd5b505050506040513d601f19601f820116820180604052508101906114769190612ffc565b611bce565b611497856000015186602001518b8b8888878c60600151612524565b50505b6116418273ffffffffffffffffffffffffffffffffffffffff166370a08231306040518263ffffffff1660e01b81526004016114d691906134a3565b60206040518083038186803b1580156114ee57600080fd5b505afa158015611502573d6000803e3d6000fd5b505050506040513d601f19601f820116820180604052508101906115269190612ffc565b8273ffffffffffffffffffffffffffffffffffffffff166370a08231306040518263ffffffff1660e01b815260040161155f91906134a3565b60206040518083038186803b15801561157757600080fd5b505afa15801561158b573d6000803e3d6000fd5b505050506040513d601f19601f820116820180604052508101906115af9190612ffc565b856040015173ffffffffffffffffffffffffffffffffffffffff166370a08231306040518263ffffffff1660e01b81526004016115ec91906134a3565b60206040518083038186803b15801561160457600080fd5b505afa158015611618573d6000803e3d6000fd5b505050506040513d601f19601f8201168201806040525081019061163c9190612ffc565b611bce565b50505050505050565b7f000000000000000000000000000000000000000000000000000000000000000073ffffffffffffffffffffffffffffffffffffffff168473ffffffffffffffffffffffffffffffffffffffff161480156116a55750804710155b156117fd577f000000000000000000000000000000000000000000000000000000000000000073ffffffffffffffffffffffffffffffffffffffff1663d0e30db0826040518263ffffffff1660e01b81526004016000604051808303818588803b15801561171257600080fd5b505af1158015611726573d6000803e3d6000fd5b50505050507f000000000000000000000000000000000000000000000000000000000000000073ffffffffffffffffffffffffffffffffffffffff1663a9059cbb83836040518363ffffffff1660e01b8152600401808373ffffffffffffffffffffffffffffffffffffffff16815260200182815260200192505050602060405180830381600087803b1580156117bc57600080fd5b505af11580156117d0573d6000803e3d6000fd5b505050506040513d60208110156117e657600080fd5b81019080805190602001909291905050505061184f565b3073ffffffffffffffffffffffffffffffffffffffff168373ffffffffffffffffffffffffffffffffffffffff1614156118415761183c848383611c79565b61184e565b61184d848484846125fc565b5b5b50505050565b60008273ffffffffffffffffffffffffffffffffffffffff1682600067ffffffffffffffff8111801561188757600080fd5b506040519080825280601f01601f1916602001820160405280156118ba5781602001600182028036833780820191505090505b506040518082805190602001908083835b602083106118ee57805182526020820191506020810190506020830392506118cb565b6001836020036101000a03801982511681845116808217855250505050505090500191505060006040518083038185875af1925050503d8060008114611950576040519150601f19603f3d011682016040523d82523d6000602084013e611955565b606091505b50509050806119cc576040517f08c379a00000000000000000000000000000000000000000000000000000000081526004018080602001828103825260038152602001807f535445000000000000000000000000000000000000000000000000000000000081525060200191505060405180910390fd5b505050565b6000816020015173ffffffffffffffffffffffffffffffffffffffff16826000015173ffffffffffffffffffffffffffffffffffffffff1610611a1357600080fd5b82826000015183602001518460400151604051602001808473ffffffffffffffffffffffffffffffffffffffff1681526020018373ffffffffffffffffffffffffffffffffffffffff1681526020018262ffffff1681526020019350505050604051602081830303815290604052805190602001207fe34f199b19b2b4f47f68442619d555527d244f78a3297ea89325f843f87b8b5460001b60405160200180807fff000000000000000000000000000000000000000000000000000000000000008152506001018473ffffffffffffffffffffffffffffffffffffffff1660601b815260140183815260200182815260200193505050506040516020818303038152906040528051906020012060001c905092915050565b611bca828260405160240180838152602001828152602001925050506040516020818303038152906040527f6c0f6980000000000000000000000000000000000000000000000000000000007bffffffffffffffffffffffffffffffffffffffffffffffffffffffff19166020820180517bffffffffffffffffffffffffffffffffffffffffffffffffffffffff838183161783525050505061281c565b5050565b611c748383836040516024018084815260200183815260200182815260200193505050506040516020818303038152906040527fe7820a74000000000000000000000000000000000000000000000000000000007bffffffffffffffffffffffffffffffffffffffffffffffffffffffff19166020820180517bffffffffffffffffffffffffffffffffffffffffffffffffffffffff838183161783525050505061281c565b505050565b6000808473ffffffffffffffffffffffffffffffffffffffff1663a9059cbb60e01b8585604051602401808373ffffffffffffffffffffffffffffffffffffffff16815260200182815260200192505050604051602081830303815290604052907bffffffffffffffffffffffffffffffffffffffffffffffffffffffff19166020820180517bffffffffffffffffffffffffffffffffffffffffffffffffffffffff83818316178352505050506040518082805190602001908083835b60208310611d5a5780518252602082019150602081019050602083039250611d37565b6001836020036101000a0380198251168184511680821785525050505050509050019150506000604051808303816000865af19150503d8060008114611dbc576040519150601f19603f3d011682016040523d82523d6000602084013e611dc1565b606091505b5091509150818015611e015750600081511480611e005750808060200190516020811015611dee57600080fd5b81019080805190602001909291905050505b5b611e73576040517f08c379a00000000000000000000000000000000000000000000000000000000081526004018080602001828103825260028152602001807f535400000000000000000000000000000000000000000000000000000000000081525060200191505060405180910390fd5b5050505050565b6000611e8683836119d1565b90508073ffffffffffffffffffffffffffffffffffffffff163373ffffffffffffffffffffffffffffffffffffffff1614611ec057600080fd5b92915050565b6000611ef3847f000000000000000000000000000000000000000000000000000000000000000087612845565b600260009054906101000a900473ffffffffffffffffffffffffffffffffffffffff1673ffffffffffffffffffffffffffffffffffffffff168473ffffffffffffffffffffffffffffffffffffffff161480611f9c5750600260009054906101000a900473ffffffffffffffffffffffffffffffffffffffff1673ffffffffffffffffffffffffffffffffffffffff168373ffffffffffffffffffffffffffffffffffffffff16145b156120ee577f000000000000000000000000000000000000000000000000000000000000000073ffffffffffffffffffffffffffffffffffffffff1663414bf3896040518061010001604052808773ffffffffffffffffffffffffffffffffffffffff1681526020018673ffffffffffffffffffffffffffffffffffffffff1681526020018562ffffff1681526020013073ffffffffffffffffffffffffffffffffffffffff16815260200160c84201815260200188815260200160008152602001600073ffffffffffffffffffffffffffffffffffffffff168152506040518263ffffffff1660e01b815260040161209591906135c3565b602060405180830381600087803b1580156120af57600080fd5b505af11580156120c3573d6000803e3d6000fd5b505050506040513d601f19601f820116820180604052508101906120e79190612ffc565b905061222b565b60006040518060a001604052808685600260009054906101000a900473ffffffffffffffffffffffffffffffffffffffff168789604051602001612136959493929190613429565b60405160208183030381529060405281526020013073ffffffffffffffffffffffffffffffffffffffff16815260200160c842018152602001878152602001600081525090507f000000000000000000000000000000000000000000000000000000000000000073ffffffffffffffffffffffffffffffffffffffff1663c04b8d59826040518263ffffffff1660e01b81526004016121d591906135a1565b602060405180830381600087803b1580156121ef57600080fd5b505af1158015612203573d6000803e3d6000fd5b505050506040513d601f19601f820116820180604052508101906122279190612ffc565b9150505b949350505050565b61233e8383836040516024018080602001848152602001838152602001828103825285818151815260200191508051906020019080838360005b8381101561228857808201518184015260208101905061226d565b50505050905090810190601f1680156122b55780820380516001836020036101000a031916815260200191505b509450505050506040516020818303038152906040527f969cdd03000000000000000000000000000000000000000000000000000000007bffffffffffffffffffffffffffffffffffffffffffffffffffffffff19166020820180517bffffffffffffffffffffffffffffffffffffffffffffffffffffffff838183161783525050505061281c565b505050565b600080600160009054906101000a900473ffffffffffffffffffffffffffffffffffffffff1673ffffffffffffffffffffffffffffffffffffffff1663809a9e558585886040518463ffffffff1660e01b81526004016123a59392919061350a565b604080518083038186803b1580156123bc57600080fd5b505afa1580156123d0573d6000803e3d6000fd5b505050506040513d601f19601f820116820180604052508101906123f49190613061565b50905061242484600160009054906101000a900473ffffffffffffffffffffffffffffffffffffffff1687612845565b600160009054906101000a900473ffffffffffffffffffffffffffffffffffffffff1673ffffffffffffffffffffffffffffffffffffffff16637409e2eb858786856040518563ffffffff1660e01b81526004016124859493929190613541565b602060405180830381600087803b15801561249f57600080fd5b505af19250505080156124d057506040513d601f19601f820116820180604052508101906124cd9190612ffc565b60015b612517576125126040518060400160405280601181526020017f6b796265722066756e63206661696c6564000000000000000000000000000000815250612a46565b61251c565b809250505b509392505050565b60006125308988612b44565b9050600061253e8988612b44565b905061254b863084612845565b612556853083612845565b600082111561256c5761256b8630338561164a565b5b6000811115612582576125818530338461164a565b5b818411156125f05760006125968584612b5e565b90506125d76040518060400160405280600681526020017f70726f666974000000000000000000000000000000000000000000000000000081525082612b78565b6125e2873083612845565b6125ee8730868461164a565b505b50505050505050505050565b6000808573ffffffffffffffffffffffffffffffffffffffff166323b872dd60e01b868686604051602401808473ffffffffffffffffffffffffffffffffffffffff1681526020018373ffffffffffffffffffffffffffffffffffffffff1681526020018281526020019350505050604051602081830303815290604052907bffffffffffffffffffffffffffffffffffffffffffffffffffffffff19166020820180517bffffffffffffffffffffffffffffffffffffffffffffffffffffffff83818316178352505050506040518082805190602001908083835b602083106126fb57805182526020820191506020810190506020830392506126d8565b6001836020036101000a0380198251168184511680821785525050505050509050019150506000604051808303816000865af19150503d806000811461275d576040519150601f19603f3d011682016040523d82523d6000602084013e612762565b606091505b50915091508180156127a257506000815114806127a1575080806020019051602081101561278f57600080fd5b81019080805190602001909291905050505b5b612814576040517f08c379a00000000000000000000000000000000000000000000000000000000081526004018080602001828103825260038152602001807f535446000000000000000000000000000000000000000000000000000000000081525060200191505060405180910390fd5b505050505050565b60008151905060006a636f6e736f6c652e6c6f679050602083016000808483855afa5050505050565b6000808473ffffffffffffffffffffffffffffffffffffffff1663095ea7b360e01b8585604051602401808373ffffffffffffffffffffffffffffffffffffffff16815260200182815260200192505050604051602081830303815290604052907bffffffffffffffffffffffffffffffffffffffffffffffffffffffff19166020820180517bffffffffffffffffffffffffffffffffffffffffffffffffffffffff83818316178352505050506040518082805190602001908083835b602083106129265780518252602082019150602081019050602083039250612903565b6001836020036101000a0380198251168184511680821785525050505050509050019150506000604051808303816000865af19150503d8060008114612988576040519150601f19603f3d011682016040523d82523d6000602084013e61298d565b606091505b50915091508180156129cd57506000815114806129cc57508080602001905160208110156129ba57600080fd5b81019080805190602001909291905050505b5b612a3f576040517f08c379a00000000000000000000000000000000000000000000000000000000081526004018080602001828103825260028152602001807f534100000000000000000000000000000000000000000000000000000000000081525060200191505060405180910390fd5b5050505050565b612b41816040516024018080602001828103825283818151815260200191508051906020019080838360005b83811015612a8d578082015181840152602081019050612a72565b50505050905090810190601f168015612aba5780820380516001836020036101000a031916815260200191505b50925050506040516020818303038152906040527f41304fac000000000000000000000000000000000000000000000000000000007bffffffffffffffffffffffffffffffffffffffffffffffffffffffff19166020820180517bffffffffffffffffffffffffffffffffffffffffffffffffffffffff838183161783525050505061281c565b50565b6000828284019150811015612b5857600080fd5b92915050565b6000828284039150811115612b7257600080fd5b92915050565b612c7b82826040516024018080602001838152602001828103825284818151815260200191508051906020019080838360005b83811015612bc6578082015181840152602081019050612bab565b50505050905090810190601f168015612bf35780820380516001836020036101000a031916815260200191505b5093505050506040516020818303038152906040527f9710a9d0000000000000000000000000000000000000000000000000000000007bffffffffffffffffffffffffffffffffffffffffffffffffffffffff19166020820180517bffffffffffffffffffffffffffffffffffffffffffffffffffffffff838183161783525050505061281c565b5050565b600081359050612c8e816137c4565b92915050565b600081359050612ca3816137db565b92915050565b60008083601f840112612cbb57600080fd5b8235905067ffffffffffffffff811115612cd457600080fd5b602083019150836001820283011115612cec57600080fd5b9250929050565b60006101208284031215612d0657600080fd5b612d1060e06135fb565b90506000612d2084828501612ee0565b6000830152506020612d3484828501612ee0565b6020830152506040612d4884828501612c7f565b6040830152506060612d5c84828501612c7f565b6060830152506080612d7084828501612e6b565b60808301525060e0612d8484828501612ecb565b60a083015250610100612d9984828501612c94565b60c08301525092915050565b60006101008284031215612db857600080fd5b612dc36101006135fb565b90506000612dd384828501612c7f565b6000830152506020612de784828501612c7f565b6020830152506040612dfb84828501612c7f565b6040830152506060612e0f84828501612ecb565b6060830152506080612e2384828501612ee0565b60808301525060a0612e3784828501612ee0565b60a08301525060c0612e4b84828501612ecb565b60c08301525060e0612e5f84828501612c94565b60e08301525092915050565b600060608284031215612e7d57600080fd5b612e8760606135fb565b90506000612e9784828501612c7f565b6000830152506020612eab84828501612c7f565b6020830152506040612ebf84828501612ecb565b60408301525092915050565b600081359050612eda816137f2565b92915050565b600081359050612eef81613809565b92915050565b600081519050612f0481613809565b92915050565b600080600060608486031215612f1f57600080fd5b6000612f2d86828701612c7f565b9350506020612f3e86828701612c7f565b9250506040612f4f86828701612ee0565b9150509250925092565b600080600060608486031215612f6e57600080fd5b6000612f7c86828701612c7f565b9350506020612f8d86828701612ee0565b9250506040612f9e86828701612c7f565b9150509250925092565b60006101208284031215612fbb57600080fd5b6000612fc984828501612cf3565b91505092915050565b60006101008284031215612fe557600080fd5b6000612ff384828501612da5565b91505092915050565b60006020828403121561300e57600080fd5b600061301c84828501612ef5565b91505092915050565b6000806040838503121561303857600080fd5b600061304685828601612ee0565b925050602061305785828601612c7f565b9150509250929050565b6000806040838503121561307457600080fd5b600061308285828601612ef5565b925050602061309385828601612ef5565b9150509250929050565b600080600080606085870312156130b357600080fd5b60006130c187828801612ee0565b94505060206130d287828801612ee0565b935050604085013567ffffffffffffffff8111156130ef57600080fd5b6130fb87828801612ca9565b925092505092959194509250565b613112816136b0565b82525050565b61312181613659565b82525050565b61313081613659565b82525050565b61314761314282613659565b613761565b82525050565b6131568161366b565b82525050565b60006131678261362c565b6131718185613637565b935061318181856020860161372e565b61318a81613799565b840191505092915050565b60006131a08261362c565b6131aa8185613648565b93506131ba81856020860161372e565b6131c381613799565b840191505092915050565b6131d7816136c2565b82525050565b6131e6816136e6565b82525050565b600060a0830160008301518482036000860152613209828261315c565b915050602083015161321e6020860182613118565b506040830151613231604086018261340b565b506060830151613244606086018261340b565b506080830151613257608086018261340b565b508091505092915050565b610100820160008201516132796000850182613118565b50602082015161328c6020850182613118565b50604082015161329f60408501826133e5565b5060608201516132b26060850182613118565b5060808201516132c5608085018261340b565b5060a08201516132d860a085018261340b565b5060c08201516132eb60c085018261340b565b5060e08201516132fe60e08501826133d6565b50505050565b6101208201600082015161331b600085018261340b565b50602082015161332e602085018261340b565b5060408201516133416040850182613118565b5060608201516133546060850182613118565b5060808201516133676080850182613394565b5060a082015161337a60e08501826133e5565b5060c082015161338e61010085018261314d565b50505050565b6060820160008201516133aa6000850182613118565b5060208201516133bd6020850182613118565b5060408201516133d060408501826133e5565b50505050565b6133df81613677565b82525050565b6133ee81613697565b82525050565b61340561340082613697565b613785565b82525050565b613414816136a6565b82525050565b613423816136a6565b82525050565b60006134358288613136565b60148201915061344582876133f4565b6003820191506134558286613136565b60148201915061346582856133f4565b6003820191506134758284613136565b6014820191508190509695505050505050565b600060208201905061349d6000830184613127565b92915050565b60006020820190506134b86000830184613109565b92915050565b60006080820190506134d36000830187613109565b6134e0602083018661341a565b6134ed604083018561341a565b81810360608301526134ff8184613195565b905095945050505050565b600060608201905061351f60008301866131ce565b61352c60208301856131ce565b613539604083018461341a565b949350505050565b600060808201905061355660008301876131ce565b613563602083018661341a565b61357060408301856131ce565b61357d606083018461341a565b95945050505050565b600060208201905061359b60008301846131dd565b92915050565b600060208201905081810360008301526135bb81846131ec565b905092915050565b6000610100820190506135d96000830184613262565b92915050565b6000610120820190506135f56000830184613304565b92915050565b6000604051905081810181811067ffffffffffffffff8211171561362257613621613797565b5b8060405250919050565b600081519050919050565b600082825260208201905092915050565b600082825260208201905092915050565b600061366482613677565b9050919050565b60008115159050919050565b600073ffffffffffffffffffffffffffffffffffffffff82169050919050565b600062ffffff82169050919050565b6000819050919050565b60006136bb8261370a565b9050919050565b60006136cd826136d4565b9050919050565b60006136df82613677565b9050919050565b60006136f1826136f8565b9050919050565b600061370382613677565b9050919050565b60006137158261371c565b9050919050565b600061372782613677565b9050919050565b60005b8381101561374c578082015181840152602081019050613731565b8381111561375b576000848401525b50505050565b600061376c82613773565b9050919050565b600061377e826137b7565b9050919050565b6000613790826137aa565b9050919050565bfe5b6000601f19601f8301169050919050565b60008160e81b9050919050565b60008160601b9050919050565b6137cd81613659565b81146137d857600080fd5b50565b6137e48161366b565b81146137ef57600080fd5b50565b6137fb81613697565b811461380657600080fd5b50565b613812816136a6565b811461381d57600080fd5b5056fea264697066735822122096645a45f4b96f8d212047e6d9aad03aee9348998a1e313e819528f0a56eae4364736f6c63430007060033",
  "immutableReferences": {
    "687": [
      {
        "length": 32,
        "start": 1745
      },
      {
        "length": 32,
        "start": 2859
      },
      {
        "length": 32,
        "start": 3228
      }
    ],
    "691": [
      {
        "length": 32,
        "start": 156
      },
      {
        "length": 32,
        "start": 1134
      },
      {
        "length": 32,
        "start": 1457
      },
      {
        "length": 32,
        "start": 1612
      },
      {
        "length": 32,
        "start": 5708
      },
      {
        "length": 32,
        "start": 5804
      },
      {
        "length": 32,
        "start": 5933
      }
    ],
    "9547": [
      {
        "length": 32,
        "start": 2823
      },
      {
        "length": 32,
        "start": 7886
      },
      {
        "length": 32,
        "start": 8099
      },
      {
        "length": 32,
        "start": 8574
      }
    ]
  },
  "source": "// SPDX-License-Identifier: GPL-2.0-or-later\r\npragma solidity =0.7.6;\r\npragma abicoder v2;\r\n\r\nimport \"hardhat/console.sol\";\r\n\r\nimport \"@uniswap/v3-core/contracts/interfaces/callback/IUniswapV3FlashCallback.sol\";\r\nimport \"@uniswap/v3-core/contracts/libraries/LowGasSafeMath.sol\";\r\n\r\nimport {KyberNetworkProxy as IKyberNetworkProxy} from \"./interfaces/kyber/KyberNetworkProxy.sol\";\r\nimport \"@uniswap/v3-periphery/contracts/base/PeripheryPayments.sol\";\r\nimport \"@uniswap/v3-periphery/contracts/base/PeripheryImmutableState.sol\";\r\nimport \"@uniswap/v3-periphery/contracts/libraries/PoolAddress.sol\";\r\nimport \"@uniswap/v3-periphery/contracts/libraries/CallbackValidation.sol\";\r\nimport \"@uniswap/v3-periphery/contracts/libraries/TransferHelper.sol\";\r\nimport \"@uniswap/v3-periphery/contracts/interfaces/ISwapRouter.sol\";\r\nimport \"./Base.sol\";\r\n\r\ncontract Development is\r\n    IUniswapV3FlashCallback,\r\n    PeripheryImmutableState,\r\n    PeripheryPayments,\r\n    Base\r\n{\r\n    using LowGasSafeMath for uint256;\r\n    using LowGasSafeMath for int256;\r\n\r\n    IKyberNetworkProxy kyber;\r\n    ISwapRouter public immutable swapRouter;\r\n    address internal WETH;\r\n\r\n    constructor(\r\n        ISwapRouter _swapRouter,\r\n        address _factory,\r\n        address _WETH9,\r\n        address kyberAddress\r\n    ) PeripheryImmutableState(_factory, _WETH9) {\r\n        swapRouter = _swapRouter;\r\n        kyber = IKyberNetworkProxy(kyberAddress);\r\n        WETH = _WETH9;\r\n    }\r\n\r\n    function uniswapV3FlashCallback(\r\n        uint256 fee0,\r\n        uint256 fee1,\r\n        bytes calldata data\r\n    ) external override {\r\n        FlashCallbackData memory decoded = abi.decode(\r\n            data,\r\n            (FlashCallbackData)\r\n        );\r\n        CallbackValidation.verifyCallback(factory, decoded.poolKey);\r\n\r\n        address token0 = decoded.poolKey.token0; \r\n        address token1 = decoded.poolKey.token1; \r\n\r\n        console.log(\r\n            IERC20(token0).balanceOf(address(this)),\r\n            IERC20(token1).balanceOf(address(this))\r\n        );\r\n\r\n        if (decoded.unikyb) {\r\n            uint256 amountOut0 = swapOnUniswap(\r\n                decoded.amount0,\r\n                token0,\r\n                decoded.target,\r\n                decoded.poolFee2\r\n            );\r\n            console.log(\r\n                \"between swaps\",\r\n                IERC20(token0).balanceOf(address(this)),\r\n                IERC20(decoded.target).balanceOf(address(this))\r\n            );\r\n\r\n            uint256 amountOut1 = swapOnKyber(\r\n                amountOut0,\r\n                decoded.target,\r\n                token0\r\n            );\r\n\r\n            console.log(\r\n                IERC20(token0).balanceOf(address(this)),\r\n                IERC20(token1).balanceOf(address(this)),\r\n                IERC20(decoded.target).balanceOf(address(this))\r\n            );\r\n            payback(\r\n                decoded.amount0,\r\n                decoded.amount1,\r\n                fee0,\r\n                fee1,\r\n                token0,\r\n                token1,\r\n                amountOut1,\r\n                decoded.payer\r\n            );\r\n        } else {\r\n            uint256 amountOut0 = swapOnKyber(\r\n                decoded.amount0,\r\n                token0,\r\n                decoded.target\r\n            );\r\n\r\n            console.log(\r\n                \"between swaps\",\r\n                IERC20(token0).balanceOf(address(this)),\r\n                IERC20(decoded.target).balanceOf(address(this))\r\n            );\r\n\r\n            uint256 amountOut1 = swapOnUniswap(\r\n                amountOut0,\r\n                decoded.target,\r\n                token0,\r\n                decoded.poolFee2\r\n            );\r\n            console.log(\r\n                IERC20(token0).balanceOf(address(this)),\r\n                IERC20(token1).balanceOf(address(this)),\r\n                IERC20(decoded.target).balanceOf(address(this))\r\n            );\r\n\r\n            payback(\r\n                decoded.amount0,\r\n                decoded.amount1,\r\n                fee0,\r\n                fee1,\r\n                token0,\r\n                token1,\r\n                amountOut1,\r\n                decoded.payer\r\n            );\r\n        }\r\n\r\n        console.log(\r\n            IERC20(token0).balanceOf(address(this)),\r\n            IERC20(token1).balanceOf(address(this)),\r\n            IERC20(decoded.target).balanceOf(address(this))\r\n        );\r\n    }\r\n\r\n    function payback(\r\n        uint256 amount0,\r\n        uint256 amount1,\r\n        uint256 fee0,\r\n        uint256 fee1,\r\n        address token0,\r\n        address token1,\r\n        uint256 finalAmount,\r\n        address payer\r\n    ) internal {\r\n        uint256 amount0Owed = LowGasSafeMath.add(amount0, fee0);\r\n        uint256 amount1Owed = LowGasSafeMath.add(amount1, fee1);\r\n\r\n        TransferHelper.safeApprove(token0, address(this), amount0Owed);\r\n        TransferHelper.safeApprove(token1, address(this), amount1Owed);\r\n\r\n        if (amount0Owed > 0)\r\n            pay(token0, address(this), msg.sender, amount0Owed);\r\n        if (amount1Owed > 0)\r\n            pay(token1, address(this), msg.sender, amount1Owed);\r\n\r\n        if (finalAmount > amount0Owed) {\r\n            uint256 profit1 = LowGasSafeMath.sub(finalAmount, amount0Owed);\r\n\t\t\tconsole.log(\"profit\", profit1);\r\n            TransferHelper.safeApprove(token0, address(this), profit1);\r\n            pay(token0, address(this), payer, profit1);\r\n        }\r\n    }\r\n\r\n    function swapOnUniswap(\r\n        uint256 amountIn,\r\n        address inputToken,\r\n        address outputToken,\r\n        uint24 poolFee\r\n    ) internal returns (uint256 amountOut) {\r\n        TransferHelper.safeApprove(inputToken, address(swapRouter), amountIn);\r\n\r\n        if (inputToken == WETH || outputToken == WETH) {\r\n            amountOut = swapRouter.exactInputSingle(\r\n                ISwapRouter.ExactInputSingleParams({\r\n                    tokenIn: inputToken,\r\n                    tokenOut: outputToken,\r\n                    fee: poolFee,\r\n                    recipient: address(this),\r\n                    deadline: block.timestamp + 200,\r\n                    amountIn: amountIn,\r\n                    amountOutMinimum: 0,\r\n                    sqrtPriceLimitX96: 0\r\n                })\r\n            );\r\n        } else {\r\n            ISwapRouter.ExactInputParams memory params = ISwapRouter\r\n                .ExactInputParams({\r\n                    path: abi.encodePacked(\r\n                        inputToken,\r\n                        poolFee,\r\n                        WETH,\r\n                        poolFee,\r\n                        outputToken\r\n                    ),\r\n                    recipient: address(this),\r\n                    deadline: block.timestamp + 200,\r\n                    amountIn: amountIn,\r\n                    amountOutMinimum: 0\r\n                });\r\n\r\n            amountOut = swapRouter.exactInput(params);\r\n        }\r\n    }\r\n\r\n    function swapOnKyber(\r\n        uint256 amountIn,\r\n        address inputToken,\r\n        address outputToken\r\n    ) internal returns (uint256 amountOut) {\r\n        (uint256 expectedRate, ) = kyber.getExpectedRate(\r\n            IERC20(inputToken),\r\n            IERC20(outputToken),\r\n            amountIn\r\n        );\r\n\r\n        TransferHelper.safeApprove(inputToken, address(kyber), amountIn);\r\n        try\r\n            kyber.swapTokenToToken(\r\n                IERC20(inputToken),\r\n                amountIn,\r\n                IERC20(outputToken),\r\n                expectedRate\r\n            )\r\n        returns (uint256 bal) {\r\n            amountOut = bal;\r\n        } catch {\r\n            console.log(\"kyber func failed\");\r\n        }\r\n    }\r\n\r\n    struct FlashParams {\r\n        address token0;\r\n        address token1;\r\n        address token2;\r\n        uint24 fee1;\r\n        uint256 amount0;\r\n        uint256 amount1;\r\n        uint24 fee2;\r\n        bool unikyb;\r\n    }\r\n    struct FlashCallbackData {\r\n        uint256 amount0;\r\n        uint256 amount1;\r\n        address target;\r\n        address payer;\r\n        PoolAddress.PoolKey poolKey;\r\n        uint24 poolFee2;\r\n        bool unikyb;\r\n    }\r\n\r\n    function initFlash(FlashParams memory params) external {\r\n        PoolAddress.PoolKey memory poolKey = PoolAddress.PoolKey({\r\n            token0: params.token0,\r\n            token1: params.token1,\r\n            fee: params.fee1\r\n        });\r\n        IUniswapV3Pool pool = IUniswapV3Pool(\r\n            PoolAddress.computeAddress(factory, poolKey)\r\n        );\r\n\r\n        console.log(\r\n            IERC20(params.token0).balanceOf(address(this)),\r\n            IERC20(params.token1).balanceOf(address(this))\r\n        );\r\n\r\n        pool.flash(\r\n            address(this),\r\n            params.amount0,\r\n            params.amount1,\r\n            abi.encode(\r\n                FlashCallbackData({\r\n                    amount0: params.amount0,\r\n                    amount1: params.amount1,\r\n                    target: params.token2,\r\n                    payer: msg.sender,\r\n                    poolKey: poolKey,\r\n                    poolFee2: params.fee2,\r\n                    unikyb: params.unikyb\r\n                })\r\n            )\r\n        );\r\n\r\n        console.log(\r\n            IERC20(params.token0).balanceOf(address(this)),\r\n            IERC20(params.token1).balanceOf(address(this)),\r\n            IERC20(params.token2).balanceOf(address(this))\r\n        );\r\n    }\r\n\r\n    function withdrawToken(\r\n        address token,\r\n        address recipient,\r\n        uint256 value\r\n    ) external onlyOwner noReentrant {\r\n        pay(token, address(this), recipient, value);\r\n    }\r\n}\r\n",
  "sourcePath": "D:\\Desktop\\flash-swap-example\\contracts\\Development.sol",
  "compiler": {
    "name": "solc",
    "version": "0.7.6+commit.7338295f.Emscripten.clang"
  },
  "schemaVersion": "3.4.6",
  "updatedAt": "2022-03-14T17:07:23.663Z",
  "devdoc": {
    "kind": "dev",
    "methods": {
      "refundETH()": {
        "details": "Useful for bundling with mint or increase liquidity that uses ether, or exact output swaps that use ether for the input amount"
      },
      "sweepToken(address,uint256,address)": {
        "details": "The amountMinimum parameter prevents malicious contracts from stealing the token from users",
        "params": {
          "amountMinimum": "The minimum amount of token required for a transfer",
          "recipient": "The destination address of the token",
          "token": "The contract address of the token which will be transferred to `recipient`"
        }
      },
      "uniswapV3FlashCallback(uint256,uint256,bytes)": {
        "details": "In the implementation you must repay the pool the tokens sent by flash plus the computed fee amounts. The caller of this method must be checked to be a UniswapV3Pool deployed by the canonical UniswapV3Factory.",
        "params": {
          "data": "Any data passed through by the caller via the IUniswapV3PoolActions#flash call",
          "fee0": "The fee amount in token0 due to the pool by the end of the flash",
          "fee1": "The fee amount in token1 due to the pool by the end of the flash"
        }
      },
      "unwrapWETH9(uint256,address)": {
        "details": "The amountMinimum parameter prevents malicious contracts from stealing WETH9 from users.",
        "params": {
          "amountMinimum": "The minimum amount of WETH9 to unwrap",
          "recipient": "The address receiving ETH"
        }
      }
    },
    "version": 1
  },
  "userdoc": {
    "kind": "user",
    "methods": {
      "refundETH()": {
        "notice": "Refunds any ETH balance held by this contract to the `msg.sender`"
      },
      "sweepToken(address,uint256,address)": {
        "notice": "Transfers the full amount of a token held by this contract to recipient"
      },
      "uniswapV3FlashCallback(uint256,uint256,bytes)": {
        "notice": "Called to `msg.sender` after transferring to the recipient from IUniswapV3Pool#flash."
      },
      "unwrapWETH9(uint256,address)": {
        "notice": "Unwraps the contract's WETH9 balance and sends it to recipient as ETH."
      }
    },
    "version": 1
  }
}