{
  "contractName": "FlashSwaps",
  "abi": [
    {
      "inputs": [
        {
          "internalType": "contract ISwapRouter",
          "name": "_swapRouter",
          "type": "address"
        },
        {
          "internalType": "address",
          "name": "_factory",
          "type": "address"
        },
        {
          "internalType": "address",
          "name": "_WETH9",
          "type": "address"
        },
        {
          "internalType": "address",
          "name": "kyberAddress",
          "type": "address"
        }
      ],
      "stateMutability": "nonpayable",
      "type": "constructor"
    },
    {
      "anonymous": false,
      "inputs": [
        {
          "indexed": false,
          "internalType": "address",
          "name": "",
          "type": "address"
        },
        {
          "indexed": false,
          "internalType": "uint256",
          "name": "",
          "type": "uint256"
        }
      ],
      "name": "Received",
      "type": "event"
    },
    {
      "inputs": [],
      "name": "WETH9",
      "outputs": [
        {
          "internalType": "address",
          "name": "",
          "type": "address"
        }
      ],
      "stateMutability": "view",
      "type": "function"
    },
    {
      "inputs": [],
      "name": "factory",
      "outputs": [
        {
          "internalType": "address",
          "name": "",
          "type": "address"
        }
      ],
      "stateMutability": "view",
      "type": "function"
    },
    {
      "inputs": [],
      "name": "owner",
      "outputs": [
        {
          "internalType": "address",
          "name": "",
          "type": "address"
        }
      ],
      "stateMutability": "view",
      "type": "function"
    },
    {
      "inputs": [],
      "name": "refundETH",
      "outputs": [],
      "stateMutability": "payable",
      "type": "function"
    },
    {
      "inputs": [],
      "name": "swapRouter",
      "outputs": [
        {
          "internalType": "contract ISwapRouter",
          "name": "",
          "type": "address"
        }
      ],
      "stateMutability": "view",
      "type": "function"
    },
    {
      "inputs": [
        {
          "internalType": "address",
          "name": "token",
          "type": "address"
        },
        {
          "internalType": "uint256",
          "name": "amountMinimum",
          "type": "uint256"
        },
        {
          "internalType": "address",
          "name": "recipient",
          "type": "address"
        }
      ],
      "name": "sweepToken",
      "outputs": [],
      "stateMutability": "payable",
      "type": "function"
    },
    {
      "inputs": [
        {
          "internalType": "uint256",
          "name": "amountMinimum",
          "type": "uint256"
        },
        {
          "internalType": "address",
          "name": "recipient",
          "type": "address"
        }
      ],
      "name": "unwrapWETH9",
      "outputs": [],
      "stateMutability": "payable",
      "type": "function"
    },
    {
      "stateMutability": "payable",
      "type": "receive"
    },
    {
      "inputs": [
        {
          "internalType": "uint256",
          "name": "fee0",
          "type": "uint256"
        },
        {
          "internalType": "uint256",
          "name": "fee1",
          "type": "uint256"
        },
        {
          "internalType": "bytes",
          "name": "data",
          "type": "bytes"
        }
      ],
      "name": "uniswapV3FlashCallback",
      "outputs": [],
      "stateMutability": "nonpayable",
      "type": "function"
    },
    {
      "inputs": [
        {
          "components": [
            {
              "internalType": "address",
              "name": "token0",
              "type": "address"
            },
            {
              "internalType": "address",
              "name": "token1",
              "type": "address"
            },
            {
              "internalType": "address",
              "name": "token2",
              "type": "address"
            },
            {
              "internalType": "uint24",
              "name": "fee1",
              "type": "uint24"
            },
            {
              "internalType": "uint256",
              "name": "amount0",
              "type": "uint256"
            },
            {
              "internalType": "uint256",
              "name": "amount1",
              "type": "uint256"
            },
            {
              "internalType": "uint24",
              "name": "fee2",
              "type": "uint24"
            },
            {
              "internalType": "bool",
              "name": "unikyb",
              "type": "bool"
            }
          ],
          "internalType": "struct FlashSwaps.FlashParams",
          "name": "params",
          "type": "tuple"
        }
      ],
      "name": "initFlash",
      "outputs": [],
      "stateMutability": "nonpayable",
      "type": "function"
    },
    {
      "inputs": [
        {
          "internalType": "address",
          "name": "token",
          "type": "address"
        },
        {
          "internalType": "address",
          "name": "recipient",
          "type": "address"
        },
        {
          "internalType": "uint256",
          "name": "value",
          "type": "uint256"
        }
      ],
      "name": "withdrawToken",
      "outputs": [],
      "stateMutability": "nonpayable",
      "type": "function"
    }
  ],
  "bytecode": "0x60e06040523480156200001157600080fd5b5060405162002b8038038062002b808339818101604052810190620000379190620001db565b82828173ffffffffffffffffffffffffffffffffffffffff1660808173ffffffffffffffffffffffffffffffffffffffff1660601b815250508073ffffffffffffffffffffffffffffffffffffffff1660a08173ffffffffffffffffffffffffffffffffffffffff1660601b81525050505033600060016101000a81548173ffffffffffffffffffffffffffffffffffffffff021916908373ffffffffffffffffffffffffffffffffffffffff1602179055508373ffffffffffffffffffffffffffffffffffffffff1660c08173ffffffffffffffffffffffffffffffffffffffff1660601b8152505080600160006101000a81548173ffffffffffffffffffffffffffffffffffffffff021916908373ffffffffffffffffffffffffffffffffffffffff16021790555081600260006101000a81548173ffffffffffffffffffffffffffffffffffffffff021916908373ffffffffffffffffffffffffffffffffffffffff16021790555050505050620002c3565b600081519050620001be816200028f565b92915050565b600081519050620001d581620002a9565b92915050565b60008060008060808587031215620001f257600080fd5b60006200020287828801620001c4565b94505060206200021587828801620001ad565b93505060406200022887828801620001ad565b92505060606200023b87828801620001ad565b91505092959194509250565b600062000254826200026f565b9050919050565b6000620002688262000247565b9050919050565b600073ffffffffffffffffffffffffffffffffffffffff82169050919050565b6200029a8162000247565b8114620002a657600080fd5b50565b620002b4816200025b565b8114620002c057600080fd5b50565b60805160601c60a05160601c60c05160601c6128516200032f6000398061083652806111f952806112ce52806114a9525080609c528061046e52806105b1528061064c5280610ac45280610b245280610ba55250806106d1528061085a52806109cb52506128516000f3fe6080604052600436106100955760003560e01c80638da5cb5b116100595780638da5cb5b14610205578063c31c9c0714610230578063c45a01551461025b578063df2ab5bb14610286578063e9cbafb0146102a25761015d565b806301e336671461016257806312210e8a1461018b57806349404b7c146101955780634aa4a4fc146101b1578063707e69c4146101dc5761015d565b3661015d577f000000000000000000000000000000000000000000000000000000000000000073ffffffffffffffffffffffffffffffffffffffff163373ffffffffffffffffffffffffffffffffffffffff161461015b576040517f08c379a00000000000000000000000000000000000000000000000000000000081526004018080602001828103825260098152602001807f4e6f74205745544839000000000000000000000000000000000000000000000081525060200191505060405180910390fd5b005b600080fd5b34801561016e57600080fd5b5061018960048036038101906101849190611eaf565b6102cb565b005b610193610454565b005b6101af60048036038101906101aa9190611fca565b61046a565b005b3480156101bd57600080fd5b506101c661064a565b6040516101d3919061246d565b60405180910390f35b3480156101e857600080fd5b5061020360048036038101906101fe9190611f77565b61066e565b005b34801561021157600080fd5b5061021a61080e565b604051610227919061246d565b60405180910390f35b34801561023c57600080fd5b50610245610834565b6040516102529190612550565b60405180910390f35b34801561026757600080fd5b50610270610858565b60405161027d919061246d565b60405180910390f35b6102a0600480360381019061029b9190611efe565b61087c565b005b3480156102ae57600080fd5b506102c960048036038101906102c49190612042565b6109b3565b005b3373ffffffffffffffffffffffffffffffffffffffff16600060019054906101000a900473ffffffffffffffffffffffffffffffffffffffff1673ffffffffffffffffffffffffffffffffffffffff161461038e576040517f08c379a00000000000000000000000000000000000000000000000000000000081526004018080602001828103825260208152602001807f4f776e61626c653a2063616c6c6572206973206e6f7420746865206f776e657281525060200191505060405180910390fd5b60008054906101000a900460ff161561040f576040517f08c379a000000000000000000000000000000000000000000000000000000000815260040180806020018281038252600e8152602001807f4e6f2072652d656e7472616e637900000000000000000000000000000000000081525060200191505060405180910390fd5b60016000806101000a81548160ff02191690831515021790555061043583308484610ac2565b60008060006101000a81548160ff021916908315150217905550505050565b6000471115610468576104673347610ccd565b5b565b60007f000000000000000000000000000000000000000000000000000000000000000073ffffffffffffffffffffffffffffffffffffffff166370a08231306040518263ffffffff1660e01b8152600401808273ffffffffffffffffffffffffffffffffffffffff16815260200191505060206040518083038186803b1580156104f357600080fd5b505afa158015610507573d6000803e3d6000fd5b505050506040513d602081101561051d57600080fd5b81019080805190602001909291905050509050828110156105a6576040517f08c379a00000000000000000000000000000000000000000000000000000000081526004018080602001828103825260128152602001807f496e73756666696369656e74205745544839000000000000000000000000000081525060200191505060405180910390fd5b6000811115610645577f000000000000000000000000000000000000000000000000000000000000000073ffffffffffffffffffffffffffffffffffffffff16632e1a7d4d826040518263ffffffff1660e01b815260040180828152602001915050600060405180830381600087803b15801561062257600080fd5b505af1158015610636573d6000803e3d6000fd5b505050506106448282610ccd565b5b505050565b7f000000000000000000000000000000000000000000000000000000000000000081565b60006040518060600160405280836000015173ffffffffffffffffffffffffffffffffffffffff168152602001836020015173ffffffffffffffffffffffffffffffffffffffff168152602001836060015162ffffff16815250905060006106f67f000000000000000000000000000000000000000000000000000000000000000083610e49565b90508073ffffffffffffffffffffffffffffffffffffffff1663490e6cbc3085608001518660a001516040518060e00160405280896080015181526020018960a001518152602001896040015173ffffffffffffffffffffffffffffffffffffffff1681526020013373ffffffffffffffffffffffffffffffffffffffff1681526020018881526020018960c0015162ffffff1681526020018960e0015115158152506040516020016107a991906125c9565b6040516020818303038152906040526040518563ffffffff1660e01b81526004016107d79493929190612488565b600060405180830381600087803b1580156107f157600080fd5b505af1158015610805573d6000803e3d6000fd5b50505050505050565b600060019054906101000a900473ffffffffffffffffffffffffffffffffffffffff1681565b7f000000000000000000000000000000000000000000000000000000000000000081565b7f000000000000000000000000000000000000000000000000000000000000000081565b60008373ffffffffffffffffffffffffffffffffffffffff166370a08231306040518263ffffffff1660e01b8152600401808273ffffffffffffffffffffffffffffffffffffffff16815260200191505060206040518083038186803b1580156108e557600080fd5b505afa1580156108f9573d6000803e3d6000fd5b505050506040513d602081101561090f57600080fd5b8101908080519060200190929190505050905082811015610998576040517f08c379a00000000000000000000000000000000000000000000000000000000081526004018080602001828103825260128152602001807f496e73756666696369656e7420746f6b656e000000000000000000000000000081525060200191505060405180910390fd5b60008111156109ad576109ac848383610fa4565b5b50505050565b600082828101906109c49190611f4d565b90506109f47f000000000000000000000000000000000000000000000000000000000000000082608001516111a5565b5060008160800151600001519050600082608001516020015190508260c0015115610a6b576000610a3384600001518486604001518760a001516111f1565b90506000610a468286604001518661155e565b9050610a64856000015186602001518b8b8888878c60600151611736565b5050610ab9565b6000610a80846000015184866040015161155e565b90506000610a98828660400151868860a001516111f1565b9050610ab6856000015186602001518b8b8888878c60600151611736565b50505b50505050505050565b7f000000000000000000000000000000000000000000000000000000000000000073ffffffffffffffffffffffffffffffffffffffff168473ffffffffffffffffffffffffffffffffffffffff16148015610b1d5750804710155b15610c75577f000000000000000000000000000000000000000000000000000000000000000073ffffffffffffffffffffffffffffffffffffffff1663d0e30db0826040518263ffffffff1660e01b81526004016000604051808303818588803b158015610b8a57600080fd5b505af1158015610b9e573d6000803e3d6000fd5b50505050507f000000000000000000000000000000000000000000000000000000000000000073ffffffffffffffffffffffffffffffffffffffff1663a9059cbb83836040518363ffffffff1660e01b8152600401808373ffffffffffffffffffffffffffffffffffffffff16815260200182815260200192505050602060405180830381600087803b158015610c3457600080fd5b505af1158015610c48573d6000803e3d6000fd5b505050506040513d6020811015610c5e57600080fd5b810190808051906020019092919050505050610cc7565b3073ffffffffffffffffffffffffffffffffffffffff168373ffffffffffffffffffffffffffffffffffffffff161415610cb957610cb4848383610fa4565b610cc6565b610cc5848484846117cf565b5b5b50505050565b60008273ffffffffffffffffffffffffffffffffffffffff1682600067ffffffffffffffff81118015610cff57600080fd5b506040519080825280601f01601f191660200182016040528015610d325781602001600182028036833780820191505090505b506040518082805190602001908083835b60208310610d665780518252602082019150602081019050602083039250610d43565b6001836020036101000a03801982511681845116808217855250505050505090500191505060006040518083038185875af1925050503d8060008114610dc8576040519150601f19603f3d011682016040523d82523d6000602084013e610dcd565b606091505b5050905080610e44576040517f08c379a00000000000000000000000000000000000000000000000000000000081526004018080602001828103825260038152602001807f535445000000000000000000000000000000000000000000000000000000000081525060200191505060405180910390fd5b505050565b6000816020015173ffffffffffffffffffffffffffffffffffffffff16826000015173ffffffffffffffffffffffffffffffffffffffff1610610e8b57600080fd5b82826000015183602001518460400151604051602001808473ffffffffffffffffffffffffffffffffffffffff1681526020018373ffffffffffffffffffffffffffffffffffffffff1681526020018262ffffff1681526020019350505050604051602081830303815290604052805190602001207fe34f199b19b2b4f47f68442619d555527d244f78a3297ea89325f843f87b8b5460001b60405160200180807fff000000000000000000000000000000000000000000000000000000000000008152506001018473ffffffffffffffffffffffffffffffffffffffff1660601b815260140183815260200182815260200193505050506040516020818303038152906040528051906020012060001c905092915050565b6000808473ffffffffffffffffffffffffffffffffffffffff1663a9059cbb60e01b8585604051602401808373ffffffffffffffffffffffffffffffffffffffff16815260200182815260200192505050604051602081830303815290604052907bffffffffffffffffffffffffffffffffffffffffffffffffffffffff19166020820180517bffffffffffffffffffffffffffffffffffffffffffffffffffffffff83818316178352505050506040518082805190602001908083835b602083106110855780518252602082019150602081019050602083039250611062565b6001836020036101000a0380198251168184511680821785525050505050509050019150506000604051808303816000865af19150503d80600081146110e7576040519150601f19603f3d011682016040523d82523d6000602084013e6110ec565b606091505b509150915081801561112c575060008151148061112b575080806020019051602081101561111957600080fd5b81019080805190602001909291905050505b5b61119e576040517f08c379a00000000000000000000000000000000000000000000000000000000081526004018080602001828103825260028152602001807f535400000000000000000000000000000000000000000000000000000000000081525060200191505060405180910390fd5b5050505050565b60006111b18383610e49565b90508073ffffffffffffffffffffffffffffffffffffffff163373ffffffffffffffffffffffffffffffffffffffff16146111eb57600080fd5b92915050565b600061121e847f0000000000000000000000000000000000000000000000000000000000000000876119ef565b600260009054906101000a900473ffffffffffffffffffffffffffffffffffffffff1673ffffffffffffffffffffffffffffffffffffffff168473ffffffffffffffffffffffffffffffffffffffff1614806112c75750600260009054906101000a900473ffffffffffffffffffffffffffffffffffffffff1673ffffffffffffffffffffffffffffffffffffffff168373ffffffffffffffffffffffffffffffffffffffff16145b15611419577f000000000000000000000000000000000000000000000000000000000000000073ffffffffffffffffffffffffffffffffffffffff1663414bf3896040518061010001604052808773ffffffffffffffffffffffffffffffffffffffff1681526020018673ffffffffffffffffffffffffffffffffffffffff1681526020018562ffffff1681526020013073ffffffffffffffffffffffffffffffffffffffff16815260200160c84201815260200188815260200160008152602001600073ffffffffffffffffffffffffffffffffffffffff168152506040518263ffffffff1660e01b81526004016113c091906125ad565b602060405180830381600087803b1580156113da57600080fd5b505af11580156113ee573d6000803e3d6000fd5b505050506040513d601f19601f820116820180604052508101906114129190611fa1565b9050611556565b60006040518060a001604052808685600260009054906101000a900473ffffffffffffffffffffffffffffffffffffffff16878960405160200161146195949392919061240e565b60405160208183030381529060405281526020013073ffffffffffffffffffffffffffffffffffffffff16815260200160c842018152602001878152602001600081525090507f000000000000000000000000000000000000000000000000000000000000000073ffffffffffffffffffffffffffffffffffffffff1663c04b8d59826040518263ffffffff1660e01b8152600401611500919061258b565b602060405180830381600087803b15801561151a57600080fd5b505af115801561152e573d6000803e3d6000fd5b505050506040513d601f19601f820116820180604052508101906115529190611fa1565b9150505b949350505050565b600080600160009054906101000a900473ffffffffffffffffffffffffffffffffffffffff1673ffffffffffffffffffffffffffffffffffffffff1663809a9e558585886040518463ffffffff1660e01b81526004016115c0939291906124d4565b604080518083038186803b1580156115d757600080fd5b505afa1580156115eb573d6000803e3d6000fd5b505050506040513d601f19601f8201168201806040525081019061160f9190612006565b50905061163f84600160009054906101000a900473ffffffffffffffffffffffffffffffffffffffff16876119ef565b600160009054906101000a900473ffffffffffffffffffffffffffffffffffffffff1673ffffffffffffffffffffffffffffffffffffffff16637409e2eb858786856040518563ffffffff1660e01b81526004016116a0949392919061250b565b602060405180830381600087803b1580156116ba57600080fd5b505af19250505080156116eb57506040513d601f19601f820116820180604052508101906116e89190611fa1565b60015b61172a576040517f08c379a00000000000000000000000000000000000000000000000000000000081526004016117219061256b565b60405180910390fd5b80925050509392505050565b60006117428988611bf0565b905060006117508988611bf0565b905061175d8630846119ef565b6117688530836119ef565b600082111561177e5761177d86303385610ac2565b5b60008111156117945761179385303384610ac2565b5b818411156117c35760006117a88584611c0a565b90506117b58730836119ef565b6117c187308684610ac2565b505b50505050505050505050565b6000808573ffffffffffffffffffffffffffffffffffffffff166323b872dd60e01b868686604051602401808473ffffffffffffffffffffffffffffffffffffffff1681526020018373ffffffffffffffffffffffffffffffffffffffff1681526020018281526020019350505050604051602081830303815290604052907bffffffffffffffffffffffffffffffffffffffffffffffffffffffff19166020820180517bffffffffffffffffffffffffffffffffffffffffffffffffffffffff83818316178352505050506040518082805190602001908083835b602083106118ce57805182526020820191506020810190506020830392506118ab565b6001836020036101000a0380198251168184511680821785525050505050509050019150506000604051808303816000865af19150503d8060008114611930576040519150601f19603f3d011682016040523d82523d6000602084013e611935565b606091505b50915091508180156119755750600081511480611974575080806020019051602081101561196257600080fd5b81019080805190602001909291905050505b5b6119e7576040517f08c379a00000000000000000000000000000000000000000000000000000000081526004018080602001828103825260038152602001807f535446000000000000000000000000000000000000000000000000000000000081525060200191505060405180910390fd5b505050505050565b6000808473ffffffffffffffffffffffffffffffffffffffff1663095ea7b360e01b8585604051602401808373ffffffffffffffffffffffffffffffffffffffff16815260200182815260200192505050604051602081830303815290604052907bffffffffffffffffffffffffffffffffffffffffffffffffffffffff19166020820180517bffffffffffffffffffffffffffffffffffffffffffffffffffffffff83818316178352505050506040518082805190602001908083835b60208310611ad05780518252602082019150602081019050602083039250611aad565b6001836020036101000a0380198251168184511680821785525050505050509050019150506000604051808303816000865af19150503d8060008114611b32576040519150601f19603f3d011682016040523d82523d6000602084013e611b37565b606091505b5091509150818015611b775750600081511480611b765750808060200190516020811015611b6457600080fd5b81019080805190602001909291905050505b5b611be9576040517f08c379a00000000000000000000000000000000000000000000000000000000081526004018080602001828103825260028152602001807f534100000000000000000000000000000000000000000000000000000000000081525060200191505060405180910390fd5b5050505050565b6000828284019150811015611c0457600080fd5b92915050565b6000828284039150811115611c1e57600080fd5b92915050565b600081359050611c33816127bf565b92915050565b600081359050611c48816127d6565b92915050565b60008083601f840112611c6057600080fd5b8235905067ffffffffffffffff811115611c7957600080fd5b602083019150836001820283011115611c9157600080fd5b9250929050565b60006101208284031215611cab57600080fd5b611cb560e06125e5565b90506000611cc584828501611e85565b6000830152506020611cd984828501611e85565b6020830152506040611ced84828501611c24565b6040830152506060611d0184828501611c24565b6060830152506080611d1584828501611e10565b60808301525060e0611d2984828501611e70565b60a083015250610100611d3e84828501611c39565b60c08301525092915050565b60006101008284031215611d5d57600080fd5b611d686101006125e5565b90506000611d7884828501611c24565b6000830152506020611d8c84828501611c24565b6020830152506040611da084828501611c24565b6040830152506060611db484828501611e70565b6060830152506080611dc884828501611e85565b60808301525060a0611ddc84828501611e85565b60a08301525060c0611df084828501611e70565b60c08301525060e0611e0484828501611c39565b60e08301525092915050565b600060608284031215611e2257600080fd5b611e2c60606125e5565b90506000611e3c84828501611c24565b6000830152506020611e5084828501611c24565b6020830152506040611e6484828501611e70565b60408301525092915050565b600081359050611e7f816127ed565b92915050565b600081359050611e9481612804565b92915050565b600081519050611ea981612804565b92915050565b600080600060608486031215611ec457600080fd5b6000611ed286828701611c24565b9350506020611ee386828701611c24565b9250506040611ef486828701611e85565b9150509250925092565b600080600060608486031215611f1357600080fd5b6000611f2186828701611c24565b9350506020611f3286828701611e85565b9250506040611f4386828701611c24565b9150509250925092565b60006101208284031215611f6057600080fd5b6000611f6e84828501611c98565b91505092915050565b60006101008284031215611f8a57600080fd5b6000611f9884828501611d4a565b91505092915050565b600060208284031215611fb357600080fd5b6000611fc184828501611e9a565b91505092915050565b60008060408385031215611fdd57600080fd5b6000611feb85828601611e85565b9250506020611ffc85828601611c24565b9150509250929050565b6000806040838503121561201957600080fd5b600061202785828601611e9a565b925050602061203885828601611e9a565b9150509250929050565b6000806000806060858703121561205857600080fd5b600061206687828801611e85565b945050602061207787828801611e85565b935050604085013567ffffffffffffffff81111561209457600080fd5b6120a087828801611c4e565b925092505092959194509250565b6120b7816126ab565b82525050565b6120c681612654565b82525050565b6120d581612654565b82525050565b6120ec6120e782612654565b61275c565b82525050565b6120fb81612666565b82525050565b600061210c82612616565b6121168185612621565b9350612126818560208601612729565b61212f81612794565b840191505092915050565b600061214582612616565b61214f8185612632565b935061215f818560208601612729565b61216881612794565b840191505092915050565b61217c816126bd565b82525050565b61218b816126e1565b82525050565b600061219e600283612643565b91507f4b450000000000000000000000000000000000000000000000000000000000006000830152602082019050919050565b600060a08301600083015184820360008601526121ee8282612101565b915050602083015161220360208601826120bd565b50604083015161221660408601826123f0565b50606083015161222960608601826123f0565b50608083015161223c60808601826123f0565b508091505092915050565b6101008201600082015161225e60008501826120bd565b50602082015161227160208501826120bd565b50604082015161228460408501826123ca565b50606082015161229760608501826120bd565b5060808201516122aa60808501826123f0565b5060a08201516122bd60a08501826123f0565b5060c08201516122d060c08501826123f0565b5060e08201516122e360e08501826123bb565b50505050565b6101208201600082015161230060008501826123f0565b50602082015161231360208501826123f0565b50604082015161232660408501826120bd565b50606082015161233960608501826120bd565b50608082015161234c6080850182612379565b5060a082015161235f60e08501826123ca565b5060c08201516123736101008501826120f2565b50505050565b60608201600082015161238f60008501826120bd565b5060208201516123a260208501826120bd565b5060408201516123b560408501826123ca565b50505050565b6123c481612672565b82525050565b6123d381612692565b82525050565b6123ea6123e582612692565b612780565b82525050565b6123f9816126a1565b82525050565b612408816126a1565b82525050565b600061241a82886120db565b60148201915061242a82876123d9565b60038201915061243a82866120db565b60148201915061244a82856123d9565b60038201915061245a82846120db565b6014820191508190509695505050505050565b600060208201905061248260008301846120cc565b92915050565b600060808201905061249d60008301876120ae565b6124aa60208301866123ff565b6124b760408301856123ff565b81810360608301526124c9818461213a565b905095945050505050565b60006060820190506124e96000830186612173565b6124f66020830185612173565b61250360408301846123ff565b949350505050565b60006080820190506125206000830187612173565b61252d60208301866123ff565b61253a6040830185612173565b61254760608301846123ff565b95945050505050565b60006020820190506125656000830184612182565b92915050565b6000602082019050818103600083015261258481612191565b9050919050565b600060208201905081810360008301526125a581846121d1565b905092915050565b6000610100820190506125c36000830184612247565b92915050565b6000610120820190506125df60008301846122e9565b92915050565b6000604051905081810181811067ffffffffffffffff8211171561260c5761260b612792565b5b8060405250919050565b600081519050919050565b600082825260208201905092915050565b600082825260208201905092915050565b600082825260208201905092915050565b600061265f82612672565b9050919050565b60008115159050919050565b600073ffffffffffffffffffffffffffffffffffffffff82169050919050565b600062ffffff82169050919050565b6000819050919050565b60006126b682612705565b9050919050565b60006126c8826126cf565b9050919050565b60006126da82612672565b9050919050565b60006126ec826126f3565b9050919050565b60006126fe82612672565b9050919050565b600061271082612717565b9050919050565b600061272282612672565b9050919050565b60005b8381101561274757808201518184015260208101905061272c565b83811115612756576000848401525b50505050565b60006127678261276e565b9050919050565b6000612779826127b2565b9050919050565b600061278b826127a5565b9050919050565bfe5b6000601f19601f8301169050919050565b60008160e81b9050919050565b60008160601b9050919050565b6127c881612654565b81146127d357600080fd5b50565b6127df81612666565b81146127ea57600080fd5b50565b6127f681612692565b811461280157600080fd5b50565b61280d816126a1565b811461281857600080fd5b5056fea264697066735822122094bd6676ae5a7a02c816b23112ecd553770c3e71f5b269bc898591013c32e7d264736f6c63430007060033",
  "immutableReferences": {
    "687": [
      {
        "length": 32,
        "start": 1745
      },
      {
        "length": 32,
        "start": 2138
      },
      {
        "length": 32,
        "start": 2507
      }
    ],
    "691": [
      {
        "length": 32,
        "start": 156
      },
      {
        "length": 32,
        "start": 1134
      },
      {
        "length": 32,
        "start": 1457
      },
      {
        "length": 32,
        "start": 1612
      },
      {
        "length": 32,
        "start": 2756
      },
      {
        "length": 32,
        "start": 2852
      },
      {
        "length": 32,
        "start": 2981
      }
    ],
    "10361": [
      {
        "length": 32,
        "start": 2102
      },
      {
        "length": 32,
        "start": 4601
      },
      {
        "length": 32,
        "start": 4814
      },
      {
        "length": 32,
        "start": 5289
      }
    ]
  },
  "source": "// SPDX-License-Identifier: GPL-2.0-or-later\r\npragma solidity =0.7.6;\r\npragma abicoder v2;\r\n\r\nimport \"@uniswap/v3-core/contracts/interfaces/callback/IUniswapV3FlashCallback.sol\";\r\nimport \"@uniswap/v3-core/contracts/libraries/LowGasSafeMath.sol\";\r\n\r\nimport {KyberNetworkProxy as IKyberNetworkProxy} from \"./interfaces/kyber/KyberNetworkProxy.sol\";\r\nimport \"@uniswap/v3-periphery/contracts/base/PeripheryPayments.sol\";\r\nimport \"@uniswap/v3-periphery/contracts/base/PeripheryImmutableState.sol\";\r\nimport \"@uniswap/v3-periphery/contracts/libraries/PoolAddress.sol\";\r\nimport \"@uniswap/v3-periphery/contracts/libraries/CallbackValidation.sol\";\r\nimport \"@uniswap/v3-periphery/contracts/libraries/TransferHelper.sol\";\r\nimport \"@uniswap/v3-periphery/contracts/interfaces/ISwapRouter.sol\";\r\nimport \"./Base.sol\";\r\n\r\ncontract FlashSwaps is\r\n    IUniswapV3FlashCallback,\r\n    PeripheryImmutableState,\r\n    PeripheryPayments,\r\n    Base\r\n{\r\n    using LowGasSafeMath for uint256;\r\n    using LowGasSafeMath for int256;\r\n\r\n    IKyberNetworkProxy kyber;\r\n    ISwapRouter public immutable swapRouter;\r\n    address internal WETH;\r\n\r\n    constructor(\r\n        ISwapRouter _swapRouter,\r\n        address _factory,\r\n        address _WETH9,\r\n        address kyberAddress\r\n    ) PeripheryImmutableState(_factory, _WETH9) {\r\n        swapRouter = _swapRouter;\r\n        kyber = IKyberNetworkProxy(kyberAddress);\r\n        WETH = _WETH9;\r\n    }\r\n\r\n    function uniswapV3FlashCallback(\r\n        uint256 fee0,\r\n        uint256 fee1,\r\n        bytes calldata data\r\n    ) external override {\r\n        FlashCallbackData memory decoded = abi.decode(\r\n            data,\r\n            (FlashCallbackData)\r\n        );\r\n        CallbackValidation.verifyCallback(factory, decoded.poolKey);\r\n\r\n        address token0 = decoded.poolKey.token0;\r\n        address token1 = decoded.poolKey.token1;\r\n\r\n        //  kyber  DAI  UNI\r\n        //  1,500 DAI  uniswapV3FlashCallback \r\n        //  1,500 DAI  kyber  UNI\r\n        if (decoded.unikyb) {\r\n            uint256 amountOut0 = swapOnUniswap(\r\n                decoded.amount0,\r\n                token0,\r\n                decoded.target,\r\n                decoded.poolFee2\r\n            );\r\n\r\n            uint256 amountOut1 = swapOnKyber(\r\n                amountOut0,\r\n                decoded.target,\r\n                token0\r\n            );\r\n\r\n            payback(\r\n                decoded.amount0,\r\n                decoded.amount1,\r\n                fee0,\r\n                fee1,\r\n                token0,\r\n                token1,\r\n                amountOut1,\r\n                decoded.payer\r\n            );\r\n        } else {\r\n            uint256 amountOut0 = swapOnKyber(\r\n                decoded.amount0,\r\n                token0,\r\n                decoded.target\r\n            );\r\n\r\n            //  Uniswap  UNI  DAI\r\n            //  55.66 UNI  Uniswap DAI/ETH 0.05%  UNI/ETH 0.05%  DAI\r\n            uint256 amountOut1 = swapOnUniswap(\r\n                amountOut0,\r\n                decoded.target,\r\n                token0,\r\n                decoded.poolFee2\r\n            );\r\n\r\n            payback(\r\n                decoded.amount0,\r\n                decoded.amount1,\r\n                fee0,\r\n                fee1,\r\n                token0,\r\n                token1,\r\n                amountOut1,\r\n                decoded.payer\r\n            );\r\n        }\r\n    }\r\n\r\n    // \r\n    function payback(\r\n        uint256 amount0,\r\n        uint256 amount1,\r\n        uint256 fee0,\r\n        uint256 fee1,\r\n        address token0,\r\n        address token1,\r\n        uint256 amountOut1,\r\n        address payer\r\n    ) internal {\r\n        uint256 amount0Owed = LowGasSafeMath.add(amount0, fee0);\r\n        uint256 amount1Owed = LowGasSafeMath.add(amount1, fee1);\r\n\r\n        TransferHelper.safeApprove(token0, address(this), amount0Owed);\r\n        TransferHelper.safeApprove(token1, address(this), amount1Owed);\r\n\r\n        //   \r\n        //  1,500 DAI * (1 + 0.05%) = 1,500.75 DAI\r\n        if (amount0Owed > 0)\r\n            pay(token0, address(this), msg.sender, amount0Owed);\r\n        if (amount1Owed > 0)\r\n            pay(token1, address(this), msg.sender, amount1Owed);\r\n\r\n        // \r\n        if (amountOut1 > amount0Owed) {\r\n            uint256 profit1 = LowGasSafeMath.sub(amountOut1, amount0Owed);\r\n            TransferHelper.safeApprove(token0, address(this), profit1);\r\n            pay(token0, address(this), payer, profit1);\r\n        }\r\n    }\r\n\r\n    function swapOnUniswap(\r\n        uint256 amountIn,\r\n        address inputToken,\r\n        address outputToken,\r\n        uint24 poolFee\r\n    ) internal returns (uint256 amountOut) {\r\n        TransferHelper.safeApprove(inputToken, address(swapRouter), amountIn);\r\n\r\n        if (inputToken == WETH || outputToken == WETH) {\r\n            amountOut = swapRouter.exactInputSingle(\r\n                ISwapRouter.ExactInputSingleParams({\r\n                    tokenIn: inputToken,\r\n                    tokenOut: outputToken,\r\n                    fee: poolFee,\r\n                    recipient: address(this),\r\n                    deadline: block.timestamp + 200,\r\n                    amountIn: amountIn,\r\n                    amountOutMinimum: 0,\r\n                    sqrtPriceLimitX96: 0\r\n                })\r\n            );\r\n        } else {\r\n            ISwapRouter.ExactInputParams memory params = ISwapRouter\r\n                .ExactInputParams({\r\n                    path: abi.encodePacked(\r\n                        inputToken,\r\n                        poolFee,\r\n                        WETH,\r\n                        poolFee,\r\n                        outputToken\r\n                    ),\r\n                    recipient: address(this),\r\n                    deadline: block.timestamp + 200,\r\n                    amountIn: amountIn,\r\n                    amountOutMinimum: 0\r\n                });\r\n\r\n            amountOut = swapRouter.exactInput(params);\r\n        }\r\n    }\r\n\r\n    function swapOnKyber(\r\n        uint256 amountIn,\r\n        address inputToken,\r\n        address outputToken\r\n    ) internal returns (uint256 amountOut) {\r\n        (uint256 expectedRate, ) = kyber.getExpectedRate(\r\n            IERC20(inputToken),\r\n            IERC20(outputToken),\r\n            amountIn\r\n        );\r\n\r\n        TransferHelper.safeApprove(inputToken, address(kyber), amountIn);\r\n        try\r\n            kyber.swapTokenToToken(\r\n                IERC20(inputToken),\r\n                amountIn,\r\n                IERC20(outputToken),\r\n                expectedRate\r\n            )\r\n        returns (uint256 bal) {\r\n            amountOut = bal;\r\n        } catch {\r\n            revert(\"KE\");\r\n        }\r\n    }\r\n\r\n    struct FlashParams {\r\n        address token0;\r\n        address token1;\r\n        address token2;\r\n        uint24 fee1;\r\n        uint256 amount0;\r\n        uint256 amount1;\r\n        uint24 fee2;\r\n        bool unikyb;\r\n    }\r\n    struct FlashCallbackData {\r\n        uint256 amount0;\r\n        uint256 amount1;\r\n        address target;\r\n        address payer;\r\n        PoolAddress.PoolKey poolKey;\r\n        uint24 poolFee2;\r\n        bool unikyb;\r\n    }\r\n\r\n    function initFlash(FlashParams memory params) external {\r\n        PoolAddress.PoolKey memory poolKey = PoolAddress.PoolKey({\r\n            token0: params.token0,\r\n            token1: params.token1,\r\n            fee: params.fee1\r\n        });\r\n        IUniswapV3Pool pool = IUniswapV3Pool(\r\n            PoolAddress.computeAddress(factory, poolKey)\r\n        );\r\n\r\n        pool.flash(\r\n            address(this),\r\n            params.amount0,\r\n            params.amount1,\r\n            abi.encode(\r\n                FlashCallbackData({\r\n                    amount0: params.amount0,\r\n                    amount1: params.amount1,\r\n                    target: params.token2,\r\n                    payer: msg.sender,\r\n                    poolKey: poolKey,\r\n                    poolFee2: params.fee2,\r\n                    unikyb: params.unikyb\r\n                })\r\n            )\r\n        );\r\n    }\r\n\r\n    function withdrawToken(\r\n        address token,\r\n        address recipient,\r\n        uint256 value\r\n    ) external onlyOwner noReentrant {\r\n        pay(token, address(this), recipient, value);\r\n    }\r\n}\r\n",
  "sourcePath": "D:\\Desktop\\BlockChainDemo\\flash-swap-example\\contracts\\FlashSwaps.sol",
  "compiler": {
    "name": "solc",
    "version": "0.7.6+commit.7338295f.Emscripten.clang"
  },
  "schemaVersion": "3.4.4",
  "updatedAt": "2022-03-04T09:29:00.265Z",
  "devdoc": {
    "kind": "dev",
    "methods": {
      "refundETH()": {
        "details": "Useful for bundling with mint or increase liquidity that uses ether, or exact output swaps that use ether for the input amount"
      },
      "sweepToken(address,uint256,address)": {
        "details": "The amountMinimum parameter prevents malicious contracts from stealing the token from users",
        "params": {
          "amountMinimum": "The minimum amount of token required for a transfer",
          "recipient": "The destination address of the token",
          "token": "The contract address of the token which will be transferred to `recipient`"
        }
      },
      "uniswapV3FlashCallback(uint256,uint256,bytes)": {
        "details": "In the implementation you must repay the pool the tokens sent by flash plus the computed fee amounts. The caller of this method must be checked to be a UniswapV3Pool deployed by the canonical UniswapV3Factory.",
        "params": {
          "data": "Any data passed through by the caller via the IUniswapV3PoolActions#flash call",
          "fee0": "The fee amount in token0 due to the pool by the end of the flash",
          "fee1": "The fee amount in token1 due to the pool by the end of the flash"
        }
      },
      "unwrapWETH9(uint256,address)": {
        "details": "The amountMinimum parameter prevents malicious contracts from stealing WETH9 from users.",
        "params": {
          "amountMinimum": "The minimum amount of WETH9 to unwrap",
          "recipient": "The address receiving ETH"
        }
      }
    },
    "version": 1
  },
  "userdoc": {
    "kind": "user",
    "methods": {
      "refundETH()": {
        "notice": "Refunds any ETH balance held by this contract to the `msg.sender`"
      },
      "sweepToken(address,uint256,address)": {
        "notice": "Transfers the full amount of a token held by this contract to recipient"
      },
      "uniswapV3FlashCallback(uint256,uint256,bytes)": {
        "notice": "Called to `msg.sender` after transferring to the recipient from IUniswapV3Pool#flash."
      },
      "unwrapWETH9(uint256,address)": {
        "notice": "Unwraps the contract's WETH9 balance and sends it to recipient as ETH."
      }
    },
    "version": 1
  }
}